:10000000757200782079607A40900316763108DAAC
:10001000FB7C0078207A007B04C2B6C2B1112D119E
:100020006F11C574C0114811DB117480FA74381156
:10003000481168740F1148116874011148116874EF
:100040008011481168C2B022F5A0C2B2C2B3D2B4C6
:100050001168C2B422F5A0D2B2C2B3D2B4116FC239
:10006000B4116F116F116F227EFA116FDEFC227DC9
:10007000FADDFE2231AA31B031CE11FD223031320B
:1000800033343536373839414243444546454E547A
:100090004552204452415745523A00445241574537
:1000A0005220005355434345535346554C00575235
:1000B0004F4E472050415353574F524400434841FD
:1000C0004E47453A0090008D319E2290009B319E14
:1000D000E57C90007D931155116822D294D295D27F
:1000E00096D297C290C291C292C29322D290D291DC
:1000F000D292D293C294C295C296C29722BA0403F6
:1001000021B82230940A30950D3096103097132282
:10011000756800312822756801312822756802311E
:10012000282275680331282211EC30900A3091138F
:1001300030921E30932922E568F57A116811681112
:1001400068802AE568F57A240411681168116880CE
:100150001CE568F57A2408116811681168800EE5BD
:1001600068F57A240C1168116811688000BC001DC4
:0201700080010C
:1001720022F57C1168317A227C04740111481168DD
:1001820011CB74C01148116801742290007D93F75D
:10019200090A742A1155116822012722E493600783
:1001A20011551168A380F52220B10122011DBC0066
:1001B200012220B00122E4ECB40103416222ECB43A
:1001C2000203417D22ECB4037C418222BC00012265
:1001D20020B601227C01800074011148116890034D
:1001E20026319E74C01148116801742279647F001F
:1001F2007A007C02740111481168900236319E74B3
:10020200C01148116801742279607A007C0374017C
:1002120011481168900224319E74C011481168017E
:1002220074225245454E544552204E455720504166
:1002320053533A004E4557205041535300E57C90AA
:10024200031693F822513FEA8B759575B4006879CD
:1002520060E687759575B4005E0908DAF441E32219
:10026200513FEA8B759575B4004D7960E6877595B7
:1002720075B400430908DAF421EE22EAFF808922EC
:10028200EF8A759575B40059796478608675E7953B
:0A02920075B400230908DAF48001B6
:10029C0022513FE4EFFB7964E4E7F60809DCF97CD2
:1002AC000479607F007A0075720080042251FA2272
:1002BC007C007401114811689002D2319E116811B2
:1002CC00681168011D224348414E47454420504166
:1002DC005353574F524400C2B574011148116890E2
:1002EC0000A3319E116830B5FD7C00011D22740104
:1002FC00114811689000AE319E74C01148116811FC
:10030C006811687A007960011D222024282C303471
:10031C00383C4044484C5054585C4F4C442050415D
:04032C0053533A00ED
:00000001FF
