:0200000080116D
:10000B0085D88C85EF8A0832758901758C3C758A89
:10001B00AFC28DD28C75A882C2B4C2B6C2B5C2B7FC
:10002B0075300F75331B753618753912754203759C
:10003B008021A930AA3911C711E71AD9F975802285
:10004B00A9427800117A118FB814FB1AD9F4758074
:10005B000CA933AA3611D311E719DAF9758014AA52
:10006B00427800117A118FB814FB1AD9F480C0E9C9
:10007B0075F00A84F55085F051EA75F00A84F55253
:10008B0085F05322900170E55093F5A075B00131C6
:10009B006475B000E55193F5A075B002316475B08D
:1000AB0000E55293F59075B004316475B000E553DB
:1000BB0093F59075B008316475B000227800117A11
:1000CB0011E7118FB814F9227800117A11E7118F0B
:1000DB00B814F922758024117A118F222087037DA1
:1000EB000022A933AA393169316920B41120B52412
:1000FB0020B63820B74C11DF3086EF013A22316938
:10010B003169316931693169E5339402F53624037C
:10011B00F53380CE31693169316931693169E53344
:10012B009404F5362403F53380B8223169316931F3
:0B013B006931693169E5399402F53043
:100146002403F53980A12231693169316931693178
:1001560069E5399404F5302403F539808A227E5AFC
:10016600DEFE227FFA3164DFFC22C0F9A4B0999248
:0401760082F88090FB
:00000001FF
