:02000000800B73
:10000B00803EC290C291C292758901758C3C758AF3
:10001B00B0C28DD28C75A8827C007B007A007D00EB
:10002B0011621181119820901F209121209223BDE4
:10003B0014F20ABA3CE80BBB3CE20CBC18DC80D8CF
:10004B00758AB0758C3C0D3211B280EE2211B280E4
:10005B00E52211B280DC22EA75F00A8485F010F5F6
:10006B0011EB75F00A8485F012F513EC75F00A8428
:10007B0085F014F515229000C0781079207E02E6E9
:10008B0093F70809DEF977BF09B816F122782074C7
:10009B00808680F5A011BB75A0000803B480F22206
:1000AB007E9611BBDEFC227EFF11BB11BBDEFA225A
:0F00BB007FFFDFFE22C0F9A4B0999282F88090F7
:00000001FF
